{
  "contractName": "ContestFactory",
  "abi": [
    {
      "inputs": [
        {
          "internalType": "uint256",
          "name": "",
          "type": "uint256"
        }
      ],
      "name": "deployedContests",
      "outputs": [
        {
          "internalType": "string",
          "name": "name",
          "type": "string"
        },
        {
          "internalType": "string",
          "name": "description",
          "type": "string"
        },
        {
          "internalType": "address",
          "name": "atAddress",
          "type": "address"
        }
      ],
      "stateMutability": "view",
      "type": "function",
      "constant": true
    },
    {
      "inputs": [
        {
          "internalType": "string",
          "name": "_name",
          "type": "string"
        },
        {
          "internalType": "string",
          "name": "_desc",
          "type": "string"
        },
        {
          "internalType": "uint256",
          "name": "noOfCandidates",
          "type": "uint256"
        }
      ],
      "name": "createContest",
      "outputs": [],
      "stateMutability": "payable",
      "type": "function",
      "payable": true
    },
    {
      "inputs": [],
      "name": "getDeployedContests",
      "outputs": [
        {
          "components": [
            {
              "internalType": "string",
              "name": "name",
              "type": "string"
            },
            {
              "internalType": "string",
              "name": "description",
              "type": "string"
            },
            {
              "internalType": "address",
              "name": "atAddress",
              "type": "address"
            }
          ],
          "internalType": "struct ContestFactory.deployedContest[]",
          "name": "",
          "type": "tuple[]"
        }
      ],
      "stateMutability": "view",
      "type": "function",
      "constant": true
    }
  ],
  "bytecode": "0x608060405234801561001057600080fd5b5061275e806100206000396000f3fe608060405260043610620000385760003560e01c80633e594180146200003d578063ef3f081c146200006d578063ef752a2014620000b3575b600080fd5b3480156200004a57600080fd5b5062000055620000d3565b60405162000064919062000841565b60405180910390f35b3480156200007a57600080fd5b50620000996004803603810190620000939190620008b4565b620002be565b604051620000aa9392919062000949565b60405180910390f35b620000d16004803603810190620000cb919062000ae5565b62000439565b005b60606000805480602002602001604051908101604052809291908181526020016000905b82821015620002b557838290600052602060002090600302016040518060600160405290816000820180546200012d9062000bae565b80601f01602080910402602001604051908101604052809291908181526020018280546200015b9062000bae565b8015620001ac5780601f106200018057610100808354040283529160200191620001ac565b820191906000526020600020905b8154815290600101906020018083116200018e57829003601f168201915b50505050508152602001600182018054620001c79062000bae565b80601f0160208091040260200160405190810160405280929190818152602001828054620001f59062000bae565b8015620002465780601f106200021a5761010080835404028352916020019162000246565b820191906000526020600020905b8154815290600101906020018083116200022857829003601f168201915b505050505081526020016002820160009054906101000a900473ffffffffffffffffffffffffffffffffffffffff1673ffffffffffffffffffffffffffffffffffffffff1673ffffffffffffffffffffffffffffffffffffffff168152505081526020019060010190620000f7565b50505050905090565b60008181548110620002cf57600080fd5b9060005260206000209060030201600091509050806000018054620002f49062000bae565b80601f0160208091040260200160405190810160405280929190818152602001828054620003229062000bae565b8015620003735780601f10620003475761010080835404028352916020019162000373565b820191906000526020600020905b8154815290600101906020018083116200035557829003601f168201915b5050505050908060010180546200038a9062000bae565b80601f0160208091040260200160405190810160405280929190818152602001828054620003b89062000bae565b8015620004095780601f10620003dd5761010080835404028352916020019162000409565b820191906000526020600020905b815481529060010190602001808311620003eb57829003601f168201915b5050505050908060020160009054906101000a900473ffffffffffffffffffffffffffffffffffffffff16905083565b600034848484336040516200044e906200056d565b6200045d949392919062000bf5565b6040518091039082f09050801580156200047b573d6000803e3d6000fd5b509050600060405180606001604052808681526020018581526020018373ffffffffffffffffffffffffffffffffffffffff16815250905060008190806001815401808255809150506001900390600052602060002090600302016000909190919091506000820151816000019080519060200190620004fd9291906200057b565b5060208201518160010190805190602001906200051c9291906200057b565b5060408201518160020160006101000a81548173ffffffffffffffffffffffffffffffffffffffff021916908373ffffffffffffffffffffffffffffffffffffffff16021790555050505050505050565b611ad88062000c5183390190565b828054620005899062000bae565b90600052602060002090601f016020900481019282620005ad5760008555620005f9565b82601f10620005c857805160ff1916838001178555620005f9565b82800160010185558215620005f9579182015b82811115620005f8578251825591602001919060010190620005db565b5b5090506200060891906200060c565b5090565b5b80821115620006275760008160009055506001016200060d565b5090565b600081519050919050565b600082825260208201905092915050565b6000819050602082019050919050565b600081519050919050565b600082825260208201905092915050565b60005b838110156200069357808201518184015260208101905062000676565b83811115620006a3576000848401525b50505050565b6000601f19601f8301169050919050565b6000620006c78262000657565b620006d3818562000662565b9350620006e581856020860162000673565b620006f081620006a9565b840191505092915050565b600073ffffffffffffffffffffffffffffffffffffffff82169050919050565b60006200072882620006fb565b9050919050565b6200073a816200071b565b82525050565b600060608301600083015184820360008601526200075f8282620006ba565b915050602083015184820360208601526200077b8282620006ba565b91505060408301516200079260408601826200072f565b508091505092915050565b6000620007ab838362000740565b905092915050565b6000602082019050919050565b6000620007cd826200062b565b620007d9818562000636565b935083602082028501620007ed8562000647565b8060005b858110156200082f57848403895281516200080d85826200079d565b94506200081a83620007b3565b925060208a01995050600181019050620007f1565b50829750879550505050505092915050565b600060208201905081810360008301526200085d8184620007c0565b905092915050565b6000604051905090565b600080fd5b600080fd5b6000819050919050565b6200088e8162000879565b81146200089a57600080fd5b50565b600081359050620008ae8162000883565b92915050565b600060208284031215620008cd57620008cc6200086f565b5b6000620008dd848285016200089d565b91505092915050565b600082825260208201905092915050565b6000620009048262000657565b620009108185620008e6565b93506200092281856020860162000673565b6200092d81620006a9565b840191505092915050565b62000943816200071b565b82525050565b60006060820190508181036000830152620009658186620008f7565b905081810360208301526200097b8185620008f7565b90506200098c604083018462000938565b949350505050565b600080fd5b600080fd5b7f4e487b7100000000000000000000000000000000000000000000000000000000600052604160045260246000fd5b620009d882620006a9565b810181811067ffffffffffffffff82111715620009fa57620009f96200099e565b5b80604052505050565b600062000a0f62000865565b905062000a1d8282620009cd565b919050565b600067ffffffffffffffff82111562000a405762000a3f6200099e565b5b62000a4b82620006a9565b9050602081019050919050565b82818337600083830152505050565b600062000a7e62000a788462000a22565b62000a03565b90508281526020810184848401111562000a9d5762000a9c62000999565b5b62000aaa84828562000a58565b509392505050565b600082601f83011262000aca5762000ac962000994565b5b813562000adc84826020860162000a67565b91505092915050565b60008060006060848603121562000b015762000b006200086f565b5b600084013567ffffffffffffffff81111562000b225762000b2162000874565b5b62000b308682870162000ab2565b935050602084013567ffffffffffffffff81111562000b545762000b5362000874565b5b62000b628682870162000ab2565b925050604062000b75868287016200089d565b9150509250925092565b7f4e487b7100000000000000000000000000000000000000000000000000000000600052602260045260246000fd5b6000600282049050600182168062000bc757607f821691505b6020821081141562000bde5762000bdd62000b7f565b5b50919050565b62000bef8162000879565b82525050565b6000608082019050818103600083015262000c118187620008f7565b9050818103602083015262000c278186620008f7565b905062000c38604083018562000be4565b62000c47606083018462000938565b9594505050505056fe608060405260405162001ad838038062001ad88339818101604052810190620000299190620003df565b836004908051906020019062000041929190620000f2565b5082600590805190602001906200005a929190620000f2565b5080600260006101000a81548173ffffffffffffffffffffffffffffffffffffffff021916908373ffffffffffffffffffffffffffffffffffffffff16021790555034600781905550816006819055506000600860006101000a81548160ff0219169083151502179055506000600860016101000a81548160ff021916908315150217905550600060038190555050505050620004f4565b8280546200010090620004be565b90600052602060002090601f01602090048101928262000124576000855562000170565b82601f106200013f57805160ff191683800117855562000170565b8280016001018555821562000170579182015b828111156200016f57825182559160200191906001019062000152565b5b5090506200017f919062000183565b5090565b5b808211156200019e57600081600090555060010162000184565b5090565b6000604051905090565b600080fd5b600080fd5b600080fd5b600080fd5b6000601f19601f8301169050919050565b7f4e487b7100000000000000000000000000000000000000000000000000000000600052604160045260246000fd5b6200020b82620001c0565b810181811067ffffffffffffffff821117156200022d576200022c620001d1565b5b80604052505050565b600062000242620001a2565b905062000250828262000200565b919050565b600067ffffffffffffffff821115620002735762000272620001d1565b5b6200027e82620001c0565b9050602081019050919050565b60005b83811015620002ab5780820151818401526020810190506200028e565b83811115620002bb576000848401525b50505050565b6000620002d8620002d28462000255565b62000236565b905082815260208101848484011115620002f757620002f6620001bb565b5b620003048482856200028b565b509392505050565b600082601f830112620003245762000323620001b6565b5b815162000336848260208601620002c1565b91505092915050565b6000819050919050565b62000354816200033f565b81146200036057600080fd5b50565b600081519050620003748162000349565b92915050565b600073ffffffffffffffffffffffffffffffffffffffff82169050919050565b6000620003a7826200037a565b9050919050565b620003b9816200039a565b8114620003c557600080fd5b50565b600081519050620003d981620003ae565b92915050565b60008060008060808587031215620003fc57620003fb620001ac565b5b600085015167ffffffffffffffff8111156200041d576200041c620001b1565b5b6200042b878288016200030c565b945050602085015167ffffffffffffffff8111156200044f576200044e620001b1565b5b6200045d878288016200030c565b9350506040620004708782880162000363565b92505060606200048387828801620003c8565b91505092959194509250565b7f4e487b7100000000000000000000000000000000000000000000000000000000600052602260045260246000fd5b60006002820490506001821680620004d757607f821691505b60208210811415620004ee57620004ed6200048f565b5b50919050565b6115d480620005046000396000f3fe608060405234801561001057600080fd5b506004361061010b5760003560e01c8063481c6a75116100a257806398c079381161007157806398c079381461027a57806399bd3600146102985780639d9a7fe9146102a2578063a3ec138d146102c0578063dfbf53ae146102f05761010b565b8063481c6a751461020457806355f150f114610222578063785fa627146102405780638f6770601461025e5761010b565b8063183531a1116100de578063183531a11461018657806324f9cc4c146101a45780633477ee2e146101ae5780634051ddac146101e25761010b565b80630121b93f1461011057806302fb0c5e1461012c57806306a49fce1461014a57806306fdde0314610168575b600080fd5b61012a60048036038101906101259190610e0f565b61030e565b005b61013461044a565b6040516101419190610e57565b60405180910390f35b61015261045d565b60405161015f919061109a565b60405180910390f35b61017061064a565b60405161017d9190611106565b60405180910390f35b61018e6106d8565b60405161019b9190611137565b60405180910390f35b6101ac6106de565b005b6101c860048036038101906101c39190610e0f565b610755565b6040516101d9959493929190611161565b60405180910390f35b6101ea6108cb565b6040516101fb9594939291906111e3565b60405180910390f35b61020c610911565b6040516102199190611236565b60405180910390f35b61022a610937565b6040516102379190611106565b60405180910390f35b6102486109c5565b6040516102559190611137565b60405180910390f35b610278600480360381019061027391906113b2565b6109cb565b005b610282610b35565b60405161028f9190611137565b60405180910390f35b6102a0610b3b565b005b6102aa610ce9565b6040516102b79190610e57565b60405180910390f35b6102da60048036038101906102d59190611469565b610cfc565b6040516102e79190610e57565b60405180910390f35b6102f8610d1c565b6040516103059190611137565b60405180910390f35b600860019054906101000a900460ff1661032757600080fd5b600860009054906101000a900460ff161561034157600080fd5b600160003373ffffffffffffffffffffffffffffffffffffffff1673ffffffffffffffffffffffffffffffffffffffff16815260200190815260200160002060009054906101000a900460ff161561039857600080fd5b60008082815481106103ad576103ac611496565b5b906000526020600020906005020190508060040160008154809291906103d2906114f4565b919050555060018060003373ffffffffffffffffffffffffffffffffffffffff1673ffffffffffffffffffffffffffffffffffffffff16815260200190815260200160002060006101000a81548160ff02191690831515021790555060036000815480929190610441906114f4565b91905055505050565b600860019054906101000a900460ff1681565b60606000805480602002602001604051908101604052809291908181526020016000905b8282101561064157838290600052602060002090600502016040518060a00160405290816000820180546104b49061156c565b80601f01602080910402602001604051908101604052809291908181526020018280546104e09061156c565b801561052d5780601f106105025761010080835404028352916020019161052d565b820191906000526020600020905b81548152906001019060200180831161051057829003601f168201915b505050505081526020016001820180546105469061156c565b80601f01602080910402602001604051908101604052809291908181526020018280546105729061156c565b80156105bf5780601f10610594576101008083540402835291602001916105bf565b820191906000526020600020905b8154815290600101906020018083116105a257829003601f168201915b505050505081526020016002820160009054906101000a900473ffffffffffffffffffffffffffffffffffffffff1673ffffffffffffffffffffffffffffffffffffffff1673ffffffffffffffffffffffffffffffffffffffff1681526020016003820154815260200160048201548152505081526020019060010190610481565b50505050905090565b600480546106579061156c565b80601f01602080910402602001604051908101604052809291908181526020018280546106839061156c565b80156106d05780601f106106a5576101008083540402835291602001916106d0565b820191906000526020600020905b8154815290600101906020018083116106b357829003601f168201915b505050505081565b60065481565b600260009054906101000a900473ffffffffffffffffffffffffffffffffffffffff1673ffffffffffffffffffffffffffffffffffffffff163373ffffffffffffffffffffffffffffffffffffffff161461073857600080fd5b6001600860016101000a81548160ff021916908315150217905550565b6000818154811061076557600080fd5b90600052602060002090600502016000915090508060000180546107889061156c565b80601f01602080910402602001604051908101604052809291908181526020018280546107b49061156c565b80156108015780601f106107d657610100808354040283529160200191610801565b820191906000526020600020905b8154815290600101906020018083116107e457829003601f168201915b5050505050908060010180546108169061156c565b80601f01602080910402602001604051908101604052809291908181526020018280546108429061156c565b801561088f5780601f106108645761010080835404028352916020019161088f565b820191906000526020600020905b81548152906001019060200180831161087257829003601f168201915b5050505050908060020160009054906101000a900473ffffffffffffffffffffffffffffffffffffffff16908060030154908060040154905085565b6000806000806000600654600754600354600260009054906101000a900473ffffffffffffffffffffffffffffffffffffffff1647945094509450945094509091929394565b600260009054906101000a900473ffffffffffffffffffffffffffffffffffffffff1681565b600580546109449061156c565b80601f01602080910402602001604051908101604052809291908181526020018280546109709061156c565b80156109bd5780601f10610992576101008083540402835291602001916109bd565b820191906000526020600020905b8154815290600101906020018083116109a057829003601f168201915b505050505081565b60075481565b600260009054906101000a900473ffffffffffffffffffffffffffffffffffffffff1673ffffffffffffffffffffffffffffffffffffffff163373ffffffffffffffffffffffffffffffffffffffff1614610a2557600080fd5b60006040518060a001604052808581526020018481526020018373ffffffffffffffffffffffffffffffffffffffff16815260200160008054905081526020016000815250905060008190806001815401808255809150506001900390600052602060002090600502016000909190919091506000820151816000019080519060200190610ab4929190610d22565b506020820151816001019080519060200190610ad1929190610d22565b5060408201518160020160006101000a81548173ffffffffffffffffffffffffffffffffffffffff021916908373ffffffffffffffffffffffffffffffffffffffff1602179055506060820151816003015560808201518160040155505050505050565b60035481565b600260009054906101000a900473ffffffffffffffffffffffffffffffffffffffff1673ffffffffffffffffffffffffffffffffffffffff163373ffffffffffffffffffffffffffffffffffffffff1614610b9557600080fd5b60008060005b600080549050811015610c14578160008281548110610bbd57610bbc611496565b5b9060005260206000209060050201600401541115610c015760008181548110610be957610be8611496565b5b90600052602060002090600502016004015491508092505b8080610c0c906114f4565b915050610b9b565b506000808381548110610c2a57610c29611496565b5b906000526020600020906005020190508060020160009054906101000a900473ffffffffffffffffffffffffffffffffffffffff1673ffffffffffffffffffffffffffffffffffffffff166108fc6007549081150290604051600060405180830381858888f19350505050158015610ca6573d6000803e3d6000fd5b506000600860016101000a81548160ff0219169083151502179055506001600860006101000a81548160ff02191690831515021790555082600981905550505050565b600860009054906101000a900460ff1681565b60016020528060005260406000206000915054906101000a900460ff1681565b60095481565b828054610d2e9061156c565b90600052602060002090601f016020900481019282610d505760008555610d97565b82601f10610d6957805160ff1916838001178555610d97565b82800160010185558215610d97579182015b82811115610d96578251825591602001919060010190610d7b565b5b509050610da49190610da8565b5090565b5b80821115610dc1576000816000905550600101610da9565b5090565b6000604051905090565b600080fd5b600080fd5b6000819050919050565b610dec81610dd9565b8114610df757600080fd5b50565b600081359050610e0981610de3565b92915050565b600060208284031215610e2557610e24610dcf565b5b6000610e3384828501610dfa565b91505092915050565b60008115159050919050565b610e5181610e3c565b82525050565b6000602082019050610e6c6000830184610e48565b92915050565b600081519050919050565b600082825260208201905092915050565b6000819050602082019050919050565b600081519050919050565b600082825260208201905092915050565b60005b83811015610ed8578082015181840152602081019050610ebd565b83811115610ee7576000848401525b50505050565b6000601f19601f8301169050919050565b6000610f0982610e9e565b610f138185610ea9565b9350610f23818560208601610eba565b610f2c81610eed565b840191505092915050565b600073ffffffffffffffffffffffffffffffffffffffff82169050919050565b6000610f6282610f37565b9050919050565b610f7281610f57565b82525050565b610f8181610dd9565b82525050565b600060a0830160008301518482036000860152610fa48282610efe565b91505060208301518482036020860152610fbe8282610efe565b9150506040830151610fd36040860182610f69565b506060830151610fe66060860182610f78565b506080830151610ff96080860182610f78565b508091505092915050565b60006110108383610f87565b905092915050565b6000602082019050919050565b600061103082610e72565b61103a8185610e7d565b93508360208202850161104c85610e8e565b8060005b8581101561108857848403895281516110698582611004565b945061107483611018565b925060208a01995050600181019050611050565b50829750879550505050505092915050565b600060208201905081810360008301526110b48184611025565b905092915050565b600082825260208201905092915050565b60006110d882610e9e565b6110e281856110bc565b93506110f2818560208601610eba565b6110fb81610eed565b840191505092915050565b6000602082019050818103600083015261112081846110cd565b905092915050565b61113181610dd9565b82525050565b600060208201905061114c6000830184611128565b92915050565b61115b81610f57565b82525050565b600060a082019050818103600083015261117b81886110cd565b9050818103602083015261118f81876110cd565b905061119e6040830186611152565b6111ab6060830185611128565b6111b86080830184611128565b9695505050505050565b60006111cd82610f37565b9050919050565b6111dd816111c2565b82525050565b600060a0820190506111f86000830188611128565b6112056020830187611128565b6112126040830186611128565b61121f60608301856111d4565b61122c6080830184611128565b9695505050505050565b600060208201905061124b60008301846111d4565b92915050565b600080fd5b600080fd5b7f4e487b7100000000000000000000000000000000000000000000000000000000600052604160045260246000fd5b61129382610eed565b810181811067ffffffffffffffff821117156112b2576112b161125b565b5b80604052505050565b60006112c5610dc5565b90506112d1828261128a565b919050565b600067ffffffffffffffff8211156112f1576112f061125b565b5b6112fa82610eed565b9050602081019050919050565b82818337600083830152505050565b6000611329611324846112d6565b6112bb565b90508281526020810184848401111561134557611344611256565b5b611350848285611307565b509392505050565b600082601f83011261136d5761136c611251565b5b813561137d848260208601611316565b91505092915050565b61138f81610f57565b811461139a57600080fd5b50565b6000813590506113ac81611386565b92915050565b6000806000606084860312156113cb576113ca610dcf565b5b600084013567ffffffffffffffff8111156113e9576113e8610dd4565b5b6113f586828701611358565b935050602084013567ffffffffffffffff81111561141657611415610dd4565b5b61142286828701611358565b92505060406114338682870161139d565b9150509250925092565b611446816111c2565b811461145157600080fd5b50565b6000813590506114638161143d565b92915050565b60006020828403121561147f5761147e610dcf565b5b600061148d84828501611454565b91505092915050565b7f4e487b7100000000000000000000000000000000000000000000000000000000600052603260045260246000fd5b7f4e487b7100000000000000000000000000000000000000000000000000000000600052601160045260246000fd5b60006114ff82610dd9565b91507fffffffffffffffffffffffffffffffffffffffffffffffffffffffffffffffff821415611532576115316114c5565b5b600182019050919050565b7f4e487b7100000000000000000000000000000000000000000000000000000000600052602260045260246000fd5b6000600282049050600182168061158457607f821691505b602082108114156115985761159761153d565b5b5091905056fea2646970667358221220d80c6a4475eaf8d031e488b1058f1c752ecc8cdb44ee3292b4efd337c44814bd64736f6c634300080b0033a2646970667358221220da063dc963f6958fdd9bb84b7385eef327bec5fb7069f8ed81c423550a6d089864736f6c634300080b0033",
  "immutableReferences": {},
  "source": "// SPDX-License-Identifier: GPL-3.0\r\n\r\npragma solidity >=0.7.0 <0.9.0;\r\n\r\ncontract ContestFactory {\r\n    struct deployedContest {\r\n        string name;\r\n        string description;\r\n        address atAddress;\r\n    }\r\n\r\n    deployedContest[] public deployedContests;\r\n    \r\n    function createContest(string memory _name, string memory _desc, uint noOfCandidates) public payable {\r\n        address _atAddress = address( (new Contest){value : msg.value}(_name, _desc, noOfCandidates, msg.sender) );\r\n\r\n        deployedContest memory newContest = deployedContest({\r\n           name: _name,\r\n           description: _desc,\r\n           atAddress: _atAddress\r\n        });\r\n\r\n        deployedContests.push(newContest);\r\n    }\r\n    \r\n    function getDeployedContests() public view returns(deployedContest[] memory){\r\n        return deployedContests;\r\n    }\r\n}\r\n\r\ncontract Contest {\r\n    struct Candidate {\r\n        string name;\r\n        string description;\r\n        address payable recipient;\r\n        uint index;\r\n        uint voteCount;\r\n        // mapping(address => bool) CandidateVoters;\r\n    }\r\n\r\n    Candidate[] public candidates;\r\n    mapping(address => bool) public voters;\r\n\r\n    address public manager;\r\n    uint public votersCount;\r\n    \r\n    string public name;\r\n    string public desc;\r\n    uint public noOfCandidates;\r\n    uint public prizeAmount;\r\n    bool public completed;\r\n    bool public active;\r\n\r\n    uint public winner;\r\n\r\n    modifier restricted() {\r\n        require(msg.sender == manager);\r\n        _;\r\n    }\r\n\r\n    constructor(string memory _name, string memory _desc, uint _noOfCandidates, address creator) payable {\r\n        name = _name;\r\n        desc = _desc;\r\n        manager = creator;\r\n        prizeAmount = msg.value;\r\n        noOfCandidates = _noOfCandidates;\r\n        completed = false;\r\n        active = false;\r\n        votersCount = 0;\r\n    }\r\n\r\n    function createCandidate(string memory _name, string memory _description, address payable _recipient) public restricted {\r\n        Candidate memory newCandidate = Candidate({\r\n           name: _name,\r\n           description: _description,\r\n           recipient: _recipient,\r\n           index: candidates.length,\r\n           voteCount: 0\r\n        });\r\n\r\n        candidates.push(newCandidate);\r\n    }\r\n\r\n    function getCandidates() public view returns(Candidate[] memory){\r\n        return candidates;\r\n    }\r\n\r\n    function vote(uint index) public {\r\n        require(active);\r\n        require(!completed);\r\n        require(!voters[msg.sender]);\r\n\r\n        Candidate storage candidate = candidates[index];\r\n        candidate.voteCount++;\r\n\r\n        voters[msg.sender] = true;\r\n        votersCount++;\r\n        // candidate.CandidateVoters[msg.sender] = true;\r\n    }\r\n\r\n    function finalizeRequest() public restricted {\r\n        uint index = 0;\r\n        uint maxVote = 0;\r\n\r\n        for (uint i=0; i<candidates.length; i++) {\r\n            if(candidates[i].voteCount > maxVote){\r\n                maxVote = candidates[i].voteCount;\r\n                index = i;\r\n            }\r\n        }\r\n\r\n        Candidate storage candidate = candidates[index];\r\n        candidate.recipient.transfer(prizeAmount);\r\n\r\n        active = false;\r\n        completed = true;\r\n        winner = index;\r\n    }\r\n\r\n    function activateContest() public restricted {\r\n        active = true;\r\n    }\r\n\r\n    function getSummary() public view returns (\r\n      uint, uint, uint, address, uint256\r\n      ) {\r\n        return (\r\n          noOfCandidates,\r\n          prizeAmount,\r\n          votersCount,\r\n          manager,\r\n          address(this).balance\r\n        );\r\n    }\r\n}",
  "sourcePath": "C:\\Users\\Suraj jha\\Documents\\PublicX\\contracts\\Contest.sol",
  "compiler": {
    "name": "solc",
    "version": "0.8.11+commit.d7f03943.Emscripten.clang"
  },
  "schemaVersion": "3.4.4",
  "updatedAt": "2022-06-16T06:24:02.631Z",
  "networkType": "ethereum",
  "devdoc": {
    "kind": "dev",
    "methods": {},
    "version": 1
  },
  "userdoc": {
    "kind": "user",
    "methods": {},
    "version": 1
  }
}