{
  "contractName": "ContestFactory",
  "abi": [
    {
      "inputs": [
        {
          "internalType": "uint256",
          "name": "",
          "type": "uint256"
        }
      ],
      "name": "deployedContests",
      "outputs": [
        {
          "internalType": "string",
          "name": "name",
          "type": "string"
        },
        {
          "internalType": "string",
          "name": "description",
          "type": "string"
        },
        {
          "internalType": "address",
          "name": "atAddress",
          "type": "address"
        }
      ],
      "stateMutability": "view",
      "type": "function",
      "constant": true
    },
    {
      "inputs": [
        {
          "internalType": "string",
          "name": "_name",
          "type": "string"
        },
        {
          "internalType": "string",
          "name": "_desc",
          "type": "string"
        },
        {
          "internalType": "uint256",
          "name": "noOfCandidates",
          "type": "uint256"
        }
      ],
      "name": "createContest",
      "outputs": [],
      "stateMutability": "payable",
      "type": "function",
      "payable": true
    },
    {
      "inputs": [],
      "name": "getDeployedContests",
      "outputs": [
        {
          "components": [
            {
              "internalType": "string",
              "name": "name",
              "type": "string"
            },
            {
              "internalType": "string",
              "name": "description",
              "type": "string"
            },
            {
              "internalType": "address",
              "name": "atAddress",
              "type": "address"
            }
          ],
          "internalType": "struct ContestFactory.deployedContest[]",
          "name": "",
          "type": "tuple[]"
        }
      ],
      "stateMutability": "view",
      "type": "function",
      "constant": true
    }
  ],
  "bytecode": "0x608060405234801561001057600080fd5b50612728806100206000396000f3fe608060405260043610620000385760003560e01c80633e594180146200003d578063ef3f081c146200006d578063ef752a2014620000b3575b600080fd5b3480156200004a57600080fd5b5062000055620000d3565b60405162000064919062000841565b60405180910390f35b3480156200007a57600080fd5b50620000996004803603810190620000939190620008b4565b620002be565b604051620000aa9392919062000949565b60405180910390f35b620000d16004803603810190620000cb919062000ae5565b62000439565b005b60606000805480602002602001604051908101604052809291908181526020016000905b82821015620002b557838290600052602060002090600302016040518060600160405290816000820180546200012d9062000bae565b80601f01602080910402602001604051908101604052809291908181526020018280546200015b9062000bae565b8015620001ac5780601f106200018057610100808354040283529160200191620001ac565b820191906000526020600020905b8154815290600101906020018083116200018e57829003601f168201915b50505050508152602001600182018054620001c79062000bae565b80601f0160208091040260200160405190810160405280929190818152602001828054620001f59062000bae565b8015620002465780601f106200021a5761010080835404028352916020019162000246565b820191906000526020600020905b8154815290600101906020018083116200022857829003601f168201915b505050505081526020016002820160009054906101000a900473ffffffffffffffffffffffffffffffffffffffff1673ffffffffffffffffffffffffffffffffffffffff1673ffffffffffffffffffffffffffffffffffffffff168152505081526020019060010190620000f7565b50505050905090565b60008181548110620002cf57600080fd5b9060005260206000209060030201600091509050806000018054620002f49062000bae565b80601f0160208091040260200160405190810160405280929190818152602001828054620003229062000bae565b8015620003735780601f10620003475761010080835404028352916020019162000373565b820191906000526020600020905b8154815290600101906020018083116200035557829003601f168201915b5050505050908060010180546200038a9062000bae565b80601f0160208091040260200160405190810160405280929190818152602001828054620003b89062000bae565b8015620004095780601f10620003dd5761010080835404028352916020019162000409565b820191906000526020600020905b815481529060010190602001808311620003eb57829003601f168201915b5050505050908060020160009054906101000a900473ffffffffffffffffffffffffffffffffffffffff16905083565b600034848484336040516200044e906200056d565b6200045d949392919062000bf5565b6040518091039082f09050801580156200047b573d6000803e3d6000fd5b509050600060405180606001604052808681526020018581526020018373ffffffffffffffffffffffffffffffffffffffff16815250905060008190806001815401808255809150506001900390600052602060002090600302016000909190919091506000820151816000019080519060200190620004fd9291906200057b565b5060208201518160010190805190602001906200051c9291906200057b565b5060408201518160020160006101000a81548173ffffffffffffffffffffffffffffffffffffffff021916908373ffffffffffffffffffffffffffffffffffffffff16021790555050505050505050565b611aa28062000c5183390190565b828054620005899062000bae565b90600052602060002090601f016020900481019282620005ad5760008555620005f9565b82601f10620005c857805160ff1916838001178555620005f9565b82800160010185558215620005f9579182015b82811115620005f8578251825591602001919060010190620005db565b5b5090506200060891906200060c565b5090565b5b80821115620006275760008160009055506001016200060d565b5090565b600081519050919050565b600082825260208201905092915050565b6000819050602082019050919050565b600081519050919050565b600082825260208201905092915050565b60005b838110156200069357808201518184015260208101905062000676565b83811115620006a3576000848401525b50505050565b6000601f19601f8301169050919050565b6000620006c78262000657565b620006d3818562000662565b9350620006e581856020860162000673565b620006f081620006a9565b840191505092915050565b600073ffffffffffffffffffffffffffffffffffffffff82169050919050565b60006200072882620006fb565b9050919050565b6200073a816200071b565b82525050565b600060608301600083015184820360008601526200075f8282620006ba565b915050602083015184820360208601526200077b8282620006ba565b91505060408301516200079260408601826200072f565b508091505092915050565b6000620007ab838362000740565b905092915050565b6000602082019050919050565b6000620007cd826200062b565b620007d9818562000636565b935083602082028501620007ed8562000647565b8060005b858110156200082f57848403895281516200080d85826200079d565b94506200081a83620007b3565b925060208a01995050600181019050620007f1565b50829750879550505050505092915050565b600060208201905081810360008301526200085d8184620007c0565b905092915050565b6000604051905090565b600080fd5b600080fd5b6000819050919050565b6200088e8162000879565b81146200089a57600080fd5b50565b600081359050620008ae8162000883565b92915050565b600060208284031215620008cd57620008cc6200086f565b5b6000620008dd848285016200089d565b91505092915050565b600082825260208201905092915050565b6000620009048262000657565b620009108185620008e6565b93506200092281856020860162000673565b6200092d81620006a9565b840191505092915050565b62000943816200071b565b82525050565b60006060820190508181036000830152620009658186620008f7565b905081810360208301526200097b8185620008f7565b90506200098c604083018462000938565b949350505050565b600080fd5b600080fd5b7f4e487b7100000000000000000000000000000000000000000000000000000000600052604160045260246000fd5b620009d882620006a9565b810181811067ffffffffffffffff82111715620009fa57620009f96200099e565b5b80604052505050565b600062000a0f62000865565b905062000a1d8282620009cd565b919050565b600067ffffffffffffffff82111562000a405762000a3f6200099e565b5b62000a4b82620006a9565b9050602081019050919050565b82818337600083830152505050565b600062000a7e62000a788462000a22565b62000a03565b90508281526020810184848401111562000a9d5762000a9c62000999565b5b62000aaa84828562000a58565b509392505050565b600082601f83011262000aca5762000ac962000994565b5b813562000adc84826020860162000a67565b91505092915050565b60008060006060848603121562000b015762000b006200086f565b5b600084013567ffffffffffffffff81111562000b225762000b2162000874565b5b62000b308682870162000ab2565b935050602084013567ffffffffffffffff81111562000b545762000b5362000874565b5b62000b628682870162000ab2565b925050604062000b75868287016200089d565b9150509250925092565b7f4e487b7100000000000000000000000000000000000000000000000000000000600052602260045260246000fd5b6000600282049050600182168062000bc757607f821691505b6020821081141562000bde5762000bdd62000b7f565b5b50919050565b62000bef8162000879565b82525050565b6000608082019050818103600083015262000c118187620008f7565b9050818103602083015262000c278186620008f7565b905062000c38604083018562000be4565b62000c47606083018462000938565b9594505050505056fe608060405260405162001aa238038062001aa28339818101604052810190620000299190620003df565b836004908051906020019062000041929190620000f2565b5082600590805190602001906200005a929190620000f2565b5080600260006101000a81548173ffffffffffffffffffffffffffffffffffffffff021916908373ffffffffffffffffffffffffffffffffffffffff16021790555034600781905550816006819055506000600860006101000a81548160ff0219169083151502179055506000600860016101000a81548160ff021916908315150217905550600060038190555050505050620004f4565b8280546200010090620004be565b90600052602060002090601f01602090048101928262000124576000855562000170565b82601f106200013f57805160ff191683800117855562000170565b8280016001018555821562000170579182015b828111156200016f57825182559160200191906001019062000152565b5b5090506200017f919062000183565b5090565b5b808211156200019e57600081600090555060010162000184565b5090565b6000604051905090565b600080fd5b600080fd5b600080fd5b600080fd5b6000601f19601f8301169050919050565b7f4e487b7100000000000000000000000000000000000000000000000000000000600052604160045260246000fd5b6200020b82620001c0565b810181811067ffffffffffffffff821117156200022d576200022c620001d1565b5b80604052505050565b600062000242620001a2565b905062000250828262000200565b919050565b600067ffffffffffffffff821115620002735762000272620001d1565b5b6200027e82620001c0565b9050602081019050919050565b60005b83811015620002ab5780820151818401526020810190506200028e565b83811115620002bb576000848401525b50505050565b6000620002d8620002d28462000255565b62000236565b905082815260208101848484011115620002f757620002f6620001bb565b5b620003048482856200028b565b509392505050565b600082601f830112620003245762000323620001b6565b5b815162000336848260208601620002c1565b91505092915050565b6000819050919050565b62000354816200033f565b81146200036057600080fd5b50565b600081519050620003748162000349565b92915050565b600073ffffffffffffffffffffffffffffffffffffffff82169050919050565b6000620003a7826200037a565b9050919050565b620003b9816200039a565b8114620003c557600080fd5b50565b600081519050620003d981620003ae565b92915050565b60008060008060808587031215620003fc57620003fb620001ac565b5b600085015167ffffffffffffffff8111156200041d576200041c620001b1565b5b6200042b878288016200030c565b945050602085015167ffffffffffffffff8111156200044f576200044e620001b1565b5b6200045d878288016200030c565b9350506040620004708782880162000363565b92505060606200048387828801620003c8565b91505092959194509250565b7f4e487b7100000000000000000000000000000000000000000000000000000000600052602260045260246000fd5b60006002820490506001821680620004d757607f821691505b60208210811415620004ee57620004ed6200048f565b5b50919050565b61159e80620005046000396000f3fe608060405234801561001057600080fd5b50600436106101005760003560e01c8063481c6a751161009757806398c079381161006657806398c079381461026f57806399bd36001461028d5780639d9a7fe914610297578063a3ec138d146102b557610100565b8063481c6a75146101f957806355f150f114610217578063785fa627146102355780638f6770601461025357610100565b8063183531a1116100d3578063183531a11461017b57806324f9cc4c146101995780633477ee2e146101a35780634051ddac146101d757610100565b80630121b93f1461010557806302fb0c5e1461012157806306a49fce1461013f57806306fdde031461015d575b600080fd5b61011f600480360381019061011a9190610dd9565b6102e5565b005b610129610421565b6040516101369190610e21565b60405180910390f35b610147610434565b6040516101549190611064565b60405180910390f35b610165610621565b60405161017291906110d0565b60405180910390f35b6101836106af565b6040516101909190611101565b60405180910390f35b6101a16106b5565b005b6101bd60048036038101906101b89190610dd9565b61072c565b6040516101ce95949392919061112b565b60405180910390f35b6101df6108a2565b6040516101f09594939291906111ad565b60405180910390f35b6102016108e8565b60405161020e9190611200565b60405180910390f35b61021f61090e565b60405161022c91906110d0565b60405180910390f35b61023d61099c565b60405161024a9190611101565b60405180910390f35b61026d6004803603810190610268919061137c565b6109a2565b005b610277610b0c565b6040516102849190611101565b60405180910390f35b610295610b12565b005b61029f610cb9565b6040516102ac9190610e21565b60405180910390f35b6102cf60048036038101906102ca9190611433565b610ccc565b6040516102dc9190610e21565b60405180910390f35b600860019054906101000a900460ff166102fe57600080fd5b600860009054906101000a900460ff161561031857600080fd5b600160003373ffffffffffffffffffffffffffffffffffffffff1673ffffffffffffffffffffffffffffffffffffffff16815260200190815260200160002060009054906101000a900460ff161561036f57600080fd5b600080828154811061038457610383611460565b5b906000526020600020906005020190508060040160008154809291906103a9906114be565b919050555060018060003373ffffffffffffffffffffffffffffffffffffffff1673ffffffffffffffffffffffffffffffffffffffff16815260200190815260200160002060006101000a81548160ff02191690831515021790555060036000815480929190610418906114be565b91905055505050565b600860019054906101000a900460ff1681565b60606000805480602002602001604051908101604052809291908181526020016000905b8282101561061857838290600052602060002090600502016040518060a001604052908160008201805461048b90611536565b80601f01602080910402602001604051908101604052809291908181526020018280546104b790611536565b80156105045780601f106104d957610100808354040283529160200191610504565b820191906000526020600020905b8154815290600101906020018083116104e757829003601f168201915b5050505050815260200160018201805461051d90611536565b80601f016020809104026020016040519081016040528092919081815260200182805461054990611536565b80156105965780601f1061056b57610100808354040283529160200191610596565b820191906000526020600020905b81548152906001019060200180831161057957829003601f168201915b505050505081526020016002820160009054906101000a900473ffffffffffffffffffffffffffffffffffffffff1673ffffffffffffffffffffffffffffffffffffffff1673ffffffffffffffffffffffffffffffffffffffff1681526020016003820154815260200160048201548152505081526020019060010190610458565b50505050905090565b6004805461062e90611536565b80601f016020809104026020016040519081016040528092919081815260200182805461065a90611536565b80156106a75780601f1061067c576101008083540402835291602001916106a7565b820191906000526020600020905b81548152906001019060200180831161068a57829003601f168201915b505050505081565b60065481565b600260009054906101000a900473ffffffffffffffffffffffffffffffffffffffff1673ffffffffffffffffffffffffffffffffffffffff163373ffffffffffffffffffffffffffffffffffffffff161461070f57600080fd5b6001600860016101000a81548160ff021916908315150217905550565b6000818154811061073c57600080fd5b906000526020600020906005020160009150905080600001805461075f90611536565b80601f016020809104026020016040519081016040528092919081815260200182805461078b90611536565b80156107d85780601f106107ad576101008083540402835291602001916107d8565b820191906000526020600020905b8154815290600101906020018083116107bb57829003601f168201915b5050505050908060010180546107ed90611536565b80601f016020809104026020016040519081016040528092919081815260200182805461081990611536565b80156108665780601f1061083b57610100808354040283529160200191610866565b820191906000526020600020905b81548152906001019060200180831161084957829003601f168201915b5050505050908060020160009054906101000a900473ffffffffffffffffffffffffffffffffffffffff16908060030154908060040154905085565b6000806000806000600654600754600354600260009054906101000a900473ffffffffffffffffffffffffffffffffffffffff1647945094509450945094509091929394565b600260009054906101000a900473ffffffffffffffffffffffffffffffffffffffff1681565b6005805461091b90611536565b80601f016020809104026020016040519081016040528092919081815260200182805461094790611536565b80156109945780601f1061096957610100808354040283529160200191610994565b820191906000526020600020905b81548152906001019060200180831161097757829003601f168201915b505050505081565b60075481565b600260009054906101000a900473ffffffffffffffffffffffffffffffffffffffff1673ffffffffffffffffffffffffffffffffffffffff163373ffffffffffffffffffffffffffffffffffffffff16146109fc57600080fd5b60006040518060a001604052808581526020018481526020018373ffffffffffffffffffffffffffffffffffffffff16815260200160008054905081526020016000815250905060008190806001815401808255809150506001900390600052602060002090600502016000909190919091506000820151816000019080519060200190610a8b929190610cec565b506020820151816001019080519060200190610aa8929190610cec565b5060408201518160020160006101000a81548173ffffffffffffffffffffffffffffffffffffffff021916908373ffffffffffffffffffffffffffffffffffffffff1602179055506060820151816003015560808201518160040155505050505050565b60035481565b600260009054906101000a900473ffffffffffffffffffffffffffffffffffffffff1673ffffffffffffffffffffffffffffffffffffffff163373ffffffffffffffffffffffffffffffffffffffff1614610b6c57600080fd5b60008060005b600080549050811015610beb578160008281548110610b9457610b93611460565b5b9060005260206000209060050201600401541115610bd85760008181548110610bc057610bbf611460565b5b90600052602060002090600502016004015491508092505b8080610be3906114be565b915050610b72565b506000808381548110610c0157610c00611460565b5b906000526020600020906005020190508060020160009054906101000a900473ffffffffffffffffffffffffffffffffffffffff1673ffffffffffffffffffffffffffffffffffffffff166108fc6007549081150290604051600060405180830381858888f19350505050158015610c7d573d6000803e3d6000fd5b506000600860016101000a81548160ff0219169083151502179055506001600860006101000a81548160ff021916908315150217905550505050565b600860009054906101000a900460ff1681565b60016020528060005260406000206000915054906101000a900460ff1681565b828054610cf890611536565b90600052602060002090601f016020900481019282610d1a5760008555610d61565b82601f10610d3357805160ff1916838001178555610d61565b82800160010185558215610d61579182015b82811115610d60578251825591602001919060010190610d45565b5b509050610d6e9190610d72565b5090565b5b80821115610d8b576000816000905550600101610d73565b5090565b6000604051905090565b600080fd5b600080fd5b6000819050919050565b610db681610da3565b8114610dc157600080fd5b50565b600081359050610dd381610dad565b92915050565b600060208284031215610def57610dee610d99565b5b6000610dfd84828501610dc4565b91505092915050565b60008115159050919050565b610e1b81610e06565b82525050565b6000602082019050610e366000830184610e12565b92915050565b600081519050919050565b600082825260208201905092915050565b6000819050602082019050919050565b600081519050919050565b600082825260208201905092915050565b60005b83811015610ea2578082015181840152602081019050610e87565b83811115610eb1576000848401525b50505050565b6000601f19601f8301169050919050565b6000610ed382610e68565b610edd8185610e73565b9350610eed818560208601610e84565b610ef681610eb7565b840191505092915050565b600073ffffffffffffffffffffffffffffffffffffffff82169050919050565b6000610f2c82610f01565b9050919050565b610f3c81610f21565b82525050565b610f4b81610da3565b82525050565b600060a0830160008301518482036000860152610f6e8282610ec8565b91505060208301518482036020860152610f888282610ec8565b9150506040830151610f9d6040860182610f33565b506060830151610fb06060860182610f42565b506080830151610fc36080860182610f42565b508091505092915050565b6000610fda8383610f51565b905092915050565b6000602082019050919050565b6000610ffa82610e3c565b6110048185610e47565b93508360208202850161101685610e58565b8060005b8581101561105257848403895281516110338582610fce565b945061103e83610fe2565b925060208a0199505060018101905061101a565b50829750879550505050505092915050565b6000602082019050818103600083015261107e8184610fef565b905092915050565b600082825260208201905092915050565b60006110a282610e68565b6110ac8185611086565b93506110bc818560208601610e84565b6110c581610eb7565b840191505092915050565b600060208201905081810360008301526110ea8184611097565b905092915050565b6110fb81610da3565b82525050565b600060208201905061111660008301846110f2565b92915050565b61112581610f21565b82525050565b600060a08201905081810360008301526111458188611097565b905081810360208301526111598187611097565b9050611168604083018661111c565b61117560608301856110f2565b61118260808301846110f2565b9695505050505050565b600061119782610f01565b9050919050565b6111a78161118c565b82525050565b600060a0820190506111c260008301886110f2565b6111cf60208301876110f2565b6111dc60408301866110f2565b6111e9606083018561119e565b6111f660808301846110f2565b9695505050505050565b6000602082019050611215600083018461119e565b92915050565b600080fd5b600080fd5b7f4e487b7100000000000000000000000000000000000000000000000000000000600052604160045260246000fd5b61125d82610eb7565b810181811067ffffffffffffffff8211171561127c5761127b611225565b5b80604052505050565b600061128f610d8f565b905061129b8282611254565b919050565b600067ffffffffffffffff8211156112bb576112ba611225565b5b6112c482610eb7565b9050602081019050919050565b82818337600083830152505050565b60006112f36112ee846112a0565b611285565b90508281526020810184848401111561130f5761130e611220565b5b61131a8482856112d1565b509392505050565b600082601f8301126113375761133661121b565b5b81356113478482602086016112e0565b91505092915050565b61135981610f21565b811461136457600080fd5b50565b60008135905061137681611350565b92915050565b60008060006060848603121561139557611394610d99565b5b600084013567ffffffffffffffff8111156113b3576113b2610d9e565b5b6113bf86828701611322565b935050602084013567ffffffffffffffff8111156113e0576113df610d9e565b5b6113ec86828701611322565b92505060406113fd86828701611367565b9150509250925092565b6114108161118c565b811461141b57600080fd5b50565b60008135905061142d81611407565b92915050565b60006020828403121561144957611448610d99565b5b60006114578482850161141e565b91505092915050565b7f4e487b7100000000000000000000000000000000000000000000000000000000600052603260045260246000fd5b7f4e487b7100000000000000000000000000000000000000000000000000000000600052601160045260246000fd5b60006114c982610da3565b91507fffffffffffffffffffffffffffffffffffffffffffffffffffffffffffffffff8214156114fc576114fb61148f565b5b600182019050919050565b7f4e487b7100000000000000000000000000000000000000000000000000000000600052602260045260246000fd5b6000600282049050600182168061154e57607f821691505b6020821081141561156257611561611507565b5b5091905056fea2646970667358221220027f34cf9a0efe4a03ec5b0be20f87fd420114399e6babe13be7a9f051b7a61864736f6c634300080b0033a2646970667358221220036453ba84ccfaa4ae95170f452850db8e09f3922ef92bb1c46e6d324897a92664736f6c634300080b0033",
  "immutableReferences": {},
  "source": "// SPDX-License-Identifier: GPL-3.0\r\n\r\npragma solidity >=0.7.0 <0.9.0;\r\n\r\ncontract ContestFactory {\r\n    struct deployedContest {\r\n        string name;\r\n        string description;\r\n        address atAddress;\r\n    }\r\n\r\n    deployedContest[] public deployedContests;\r\n    \r\n    function createContest(string memory _name, string memory _desc, uint noOfCandidates) public payable {\r\n        address _atAddress = address( (new Contest){value : msg.value}(_name, _desc, noOfCandidates, msg.sender) );\r\n\r\n        deployedContest memory newContest = deployedContest({\r\n           name: _name,\r\n           description: _desc,\r\n           atAddress: _atAddress\r\n        });\r\n\r\n        deployedContests.push(newContest);\r\n    }\r\n    \r\n    function getDeployedContests() public view returns(deployedContest[] memory){\r\n        return deployedContests;\r\n    }\r\n}\r\n\r\ncontract Contest {\r\n    struct Candidate {\r\n        string name;\r\n        string description;\r\n        address payable recipient;\r\n        uint index;\r\n        uint voteCount;\r\n        // mapping(address => bool) CandidateVoters;\r\n    }\r\n\r\n    Candidate[] public candidates;\r\n    mapping(address => bool) public voters;\r\n\r\n    address public manager;\r\n    uint public votersCount;\r\n    \r\n    string public name;\r\n    string public desc;\r\n    uint public noOfCandidates;\r\n    uint public prizeAmount;\r\n    bool public completed;\r\n    bool public active;\r\n\r\n    modifier restricted() {\r\n        require(msg.sender == manager);\r\n        _;\r\n    }\r\n\r\n    constructor(string memory _name, string memory _desc, uint _noOfCandidates, address creator) payable {\r\n        name = _name;\r\n        desc = _desc;\r\n        manager = creator;\r\n        prizeAmount = msg.value;\r\n        noOfCandidates = _noOfCandidates;\r\n        completed = false;\r\n        active = false;\r\n        votersCount = 0;\r\n    }\r\n\r\n    function createCandidate(string memory _name, string memory _description, address payable _recipient) public restricted {\r\n        Candidate memory newCandidate = Candidate({\r\n           name: _name,\r\n           description: _description,\r\n           recipient: _recipient,\r\n           index: candidates.length,\r\n           voteCount: 0\r\n        });\r\n\r\n        candidates.push(newCandidate);\r\n    }\r\n\r\n    function getCandidates() public view returns(Candidate[] memory){\r\n        return candidates;\r\n    }\r\n\r\n    function vote(uint index) public {\r\n        require(active);\r\n        require(!completed);\r\n        require(!voters[msg.sender]);\r\n\r\n        Candidate storage candidate = candidates[index];\r\n        candidate.voteCount++;\r\n\r\n        voters[msg.sender] = true;\r\n        votersCount++;\r\n        // candidate.CandidateVoters[msg.sender] = true;\r\n    }\r\n\r\n    function finalizeRequest() public restricted {\r\n        uint index = 0;\r\n        uint maxVote = 0;\r\n\r\n        for (uint i=0; i<candidates.length; i++) {\r\n            if(candidates[i].voteCount > maxVote){\r\n                maxVote = candidates[i].voteCount;\r\n                index = i;\r\n            }\r\n        }\r\n\r\n        Candidate storage candidate = candidates[index];\r\n        candidate.recipient.transfer(prizeAmount);\r\n\r\n        active = false;\r\n        completed = true;\r\n    }\r\n\r\n    function activateContest() public restricted {\r\n        active = true;\r\n    }\r\n\r\n    function getSummary() public view returns (\r\n      uint, uint, uint, address, uint256\r\n      ) {\r\n        return (\r\n          noOfCandidates,\r\n          prizeAmount,\r\n          votersCount,\r\n          manager,\r\n          address(this).balance\r\n        );\r\n    }\r\n}",
  "sourcePath": "C:\\Users\\Suraj jha\\Documents\\PublicX\\contracts\\Contest.sol",
  "compiler": {
    "name": "solc",
    "version": "0.8.11+commit.d7f03943.Emscripten.clang"
  },
  "schemaVersion": "3.4.4",
  "updatedAt": "2022-06-14T09:11:27.292Z",
  "networkType": "ethereum",
  "devdoc": {
    "kind": "dev",
    "methods": {},
    "version": 1
  },
  "userdoc": {
    "kind": "user",
    "methods": {},
    "version": 1
  }
}